{
  "_format": "hh-sol-artifact-1",
  "contractName": "ComputeMarketplaceMVP",
  "sourceName": "contracts/ComputeMarketplaceMVP.sol",
  "abi": [
    {
      "inputs": [],
      "stateMutability": "payable",
      "type": "constructor"
    },
    {
      "anonymous": false,
      "inputs": [
        {
          "indexed": true,
          "internalType": "uint256",
          "name": "jobId",
          "type": "uint256"
        },
        {
          "indexed": false,
          "internalType": "address",
          "name": "provider",
          "type": "address"
        }
      ],
      "name": "JobAccepted",
      "type": "event"
    },
    {
      "anonymous": false,
      "inputs": [
        {
          "indexed": true,
          "internalType": "uint256",
          "name": "jobId",
          "type": "uint256"
        },
        {
          "indexed": false,
          "internalType": "string",
          "name": "resultHash",
          "type": "string"
        }
      ],
      "name": "JobCompleted",
      "type": "event"
    },
    {
      "anonymous": false,
      "inputs": [
        {
          "indexed": true,
          "internalType": "uint256",
          "name": "jobId",
          "type": "uint256"
        }
      ],
      "name": "JobPaid",
      "type": "event"
    },
    {
      "anonymous": false,
      "inputs": [
        {
          "indexed": true,
          "internalType": "uint256",
          "name": "jobId",
          "type": "uint256"
        },
        {
          "indexed": false,
          "internalType": "address",
          "name": "client",
          "type": "address"
        },
        {
          "indexed": false,
          "internalType": "uint256",
          "name": "price",
          "type": "uint256"
        },
        {
          "indexed": false,
          "internalType": "string",
          "name": "jobHash",
          "type": "string"
        }
      ],
      "name": "JobPosted",
      "type": "event"
    },
    {
      "inputs": [],
      "name": "COMMISSION_RATE",
      "outputs": [
        {
          "internalType": "uint256",
          "name": "",
          "type": "uint256"
        }
      ],
      "stateMutability": "view",
      "type": "function"
    },
    {
      "inputs": [
        {
          "internalType": "uint256",
          "name": "_jobId",
          "type": "uint256"
        }
      ],
      "name": "acceptJob",
      "outputs": [],
      "stateMutability": "nonpayable",
      "type": "function"
    },
    {
      "inputs": [
        {
          "internalType": "uint256",
          "name": "_jobId",
          "type": "uint256"
        },
        {
          "internalType": "string",
          "name": "_resultHash",
          "type": "string"
        }
      ],
      "name": "completeJob",
      "outputs": [],
      "stateMutability": "nonpayable",
      "type": "function"
    },
    {
      "inputs": [
        {
          "internalType": "uint256",
          "name": "_jobId",
          "type": "uint256"
        }
      ],
      "name": "confirmAndPay",
      "outputs": [],
      "stateMutability": "nonpayable",
      "type": "function"
    },
    {
      "inputs": [
        {
          "internalType": "uint256",
          "name": "",
          "type": "uint256"
        }
      ],
      "name": "jobs",
      "outputs": [
        {
          "internalType": "uint256",
          "name": "id",
          "type": "uint256"
        },
        {
          "internalType": "address payable",
          "name": "client",
          "type": "address"
        },
        {
          "internalType": "address payable",
          "name": "provider",
          "type": "address"
        },
        {
          "internalType": "uint256",
          "name": "price",
          "type": "uint256"
        },
        {
          "internalType": "uint256",
          "name": "fee",
          "type": "uint256"
        },
        {
          "internalType": "string",
          "name": "jobHash",
          "type": "string"
        },
        {
          "internalType": "string",
          "name": "resultHash",
          "type": "string"
        },
        {
          "internalType": "enum ComputeMarketplaceMVP.JobStatus",
          "name": "status",
          "type": "uint8"
        }
      ],
      "stateMutability": "view",
      "type": "function"
    },
    {
      "inputs": [],
      "name": "nextJobId",
      "outputs": [
        {
          "internalType": "uint256",
          "name": "",
          "type": "uint256"
        }
      ],
      "stateMutability": "view",
      "type": "function"
    },
    {
      "inputs": [],
      "name": "owner",
      "outputs": [
        {
          "internalType": "address payable",
          "name": "",
          "type": "address"
        }
      ],
      "stateMutability": "view",
      "type": "function"
    },
    {
      "inputs": [
        {
          "internalType": "string",
          "name": "_jobHash",
          "type": "string"
        }
      ],
      "name": "postJob",
      "outputs": [],
      "stateMutability": "payable",
      "type": "function"
    },
    {
      "stateMutability": "payable",
      "type": "receive"
    }
  ],
  "bytecode": "0x608060405260018055336000806101000a81548173ffffffffffffffffffffffffffffffffffffffff021916908373ffffffffffffffffffffffffffffffffffffffff160217905550611894806100576000396000f3fe60806040526004361061007f5760003560e01c80638da5cb5b1161004e5780638da5cb5b1461013f57806393bb22841461016a578063b0c2aa5e14610193578063d190508f146101be57610086565b8063180aedf31461008b5780631a454ea6146100cf57806327a6d1d7146100fa57806363b2f3c91461011657610086565b3661008657005b600080fd5b34801561009757600080fd5b506100b260048036038101906100ad9190610b85565b6101e7565b6040516100c6989796959493929190610d09565b60405180910390f35b3480156100db57600080fd5b506100e461038c565b6040516100f19190610d95565b60405180910390f35b610114600480360381019061010f9190610ee5565b610391565b005b34801561012257600080fd5b5061013d60048036038101906101389190610b85565b6104fe565b005b34801561014b57600080fd5b50610154610639565b6040516101619190610f2e565b60405180910390f35b34801561017657600080fd5b50610191600480360381019061018c9190610b85565b61065d565b005b34801561019f57600080fd5b506101a8610998565b6040516101b59190610d95565b60405180910390f35b3480156101ca57600080fd5b506101e560048036038101906101e09190610f49565b61099e565b005b60026020528060005260406000206000915090508060000154908060010160009054906101000a900473ffffffffffffffffffffffffffffffffffffffff16908060020160009054906101000a900473ffffffffffffffffffffffffffffffffffffffff169080600301549080600401549080600501805461026890610fd4565b80601f016020809104026020016040519081016040528092919081815260200182805461029490610fd4565b80156102e15780601f106102b6576101008083540402835291602001916102e1565b820191906000526020600020905b8154815290600101906020018083116102c457829003601f168201915b5050505050908060060180546102f690610fd4565b80601f016020809104026020016040519081016040528092919081815260200182805461032290610fd4565b801561036f5780601f106103445761010080835404028352916020019161036f565b820191906000526020600020905b81548152906001019060200180831161035257829003601f168201915b5050505050908060070160009054906101000a900460ff16905088565b600581565b600034116103d4576040517f08c379a00000000000000000000000000000000000000000000000000000000081526004016103cb90611051565b60405180910390fd5b600060026000600154815260200190815260200160002090506001548160000181905550338160010160006101000a81548173ffffffffffffffffffffffffffffffffffffffff021916908373ffffffffffffffffffffffffffffffffffffffff160217905550348160030181905550606460053461045391906110a0565b61045d9190611111565b81600401819055508181600501908161047691906112ee565b5060008160070160006101000a81548160ff0219169083600381111561049f5761049e610c92565b5b02179055506001547f54dd462f26b55b6aa0065c74835da2df2d0328b4132a21efa6dd25b911e274a73334856040516104da939291906113e1565b60405180910390a2600160008154809291906104f59061141f565b91905055505050565b60006002600083815260200190815260200160002090506000600381111561052957610528610c92565b5b8160070160009054906101000a900460ff16600381111561054d5761054c610c92565b5b1461058d576040517f08c379a0000000000000000000000000000000000000000000000000000000008152600401610584906114b3565b60405180910390fd5b338160020160006101000a81548173ffffffffffffffffffffffffffffffffffffffff021916908373ffffffffffffffffffffffffffffffffffffffff16021790555060018160070160006101000a81548160ff021916908360038111156105f8576105f7610c92565b5b0217905550817f4426e4a90a9570c8f678a263b11785eaaade8b79d76d18c43d4d8e00062e4f833360405161062d91906114d3565b60405180910390a25050565b60008054906101000a900473ffffffffffffffffffffffffffffffffffffffff1681565b60006002600083815260200190815260200160002090506002600381111561068857610687610c92565b5b8160070160009054906101000a900460ff1660038111156106ac576106ab610c92565b5b146106ec576040517f08c379a00000000000000000000000000000000000000000000000000000000081526004016106e39061153a565b60405180910390fd5b3373ffffffffffffffffffffffffffffffffffffffff168160010160009054906101000a900473ffffffffffffffffffffffffffffffffffffffff1673ffffffffffffffffffffffffffffffffffffffff161461077e576040517f08c379a0000000000000000000000000000000000000000000000000000000008152600401610775906115cc565b60405180910390fd5b60008160040154826003015461079491906115ec565b905060008060009054906101000a900473ffffffffffffffffffffffffffffffffffffffff1673ffffffffffffffffffffffffffffffffffffffff1683600401546040516107e190611651565b60006040518083038185875af1925050503d806000811461081e576040519150601f19603f3d011682016040523d82523d6000602084013e610823565b606091505b5050905080610867576040517f08c379a000000000000000000000000000000000000000000000000000000000815260040161085e906116b2565b60405180910390fd5b60008360020160009054906101000a900473ffffffffffffffffffffffffffffffffffffffff1673ffffffffffffffffffffffffffffffffffffffff16836040516108b190611651565b60006040518083038185875af1925050503d80600081146108ee576040519150601f19603f3d011682016040523d82523d6000602084013e6108f3565b606091505b5050905080610937576040517f08c379a000000000000000000000000000000000000000000000000000000000815260040161092e9061171e565b60405180910390fd5b60038460070160006101000a81548160ff0219169083600381111561095f5761095e610c92565b5b0217905550847ffcd106f4d160a7f8c7bd62a8ad73f4e41c24ede79442a25477d316a43232379160405160405180910390a25050505050565b60015481565b6000600260008481526020019081526020016000209050600160038111156109c9576109c8610c92565b5b8160070160009054906101000a900460ff1660038111156109ed576109ec610c92565b5b14610a2d576040517f08c379a0000000000000000000000000000000000000000000000000000000008152600401610a249061178a565b60405180910390fd5b3373ffffffffffffffffffffffffffffffffffffffff168160020160009054906101000a900473ffffffffffffffffffffffffffffffffffffffff1673ffffffffffffffffffffffffffffffffffffffff1614610abf576040517f08c379a0000000000000000000000000000000000000000000000000000000008152600401610ab69061181c565b60405180910390fd5b81816006019081610ad091906112ee565b5060028160070160006101000a81548160ff02191690836003811115610af957610af8610c92565b5b0217905550827f080714acc27e4104af24a8f8ef423633b2dfd61685662f7db998624db4dd338583604051610b2e919061183c565b60405180910390a2505050565b6000604051905090565b600080fd5b600080fd5b6000819050919050565b610b6281610b4f565b8114610b6d57600080fd5b50565b600081359050610b7f81610b59565b92915050565b600060208284031215610b9b57610b9a610b45565b5b6000610ba984828501610b70565b91505092915050565b610bbb81610b4f565b82525050565b600073ffffffffffffffffffffffffffffffffffffffff82169050919050565b6000610bec82610bc1565b9050919050565b610bfc81610be1565b82525050565b600081519050919050565b600082825260208201905092915050565b60005b83811015610c3c578082015181840152602081019050610c21565b60008484015250505050565b6000601f19601f8301169050919050565b6000610c6482610c02565b610c6e8185610c0d565b9350610c7e818560208601610c1e565b610c8781610c48565b840191505092915050565b7f4e487b7100000000000000000000000000000000000000000000000000000000600052602160045260246000fd5b60048110610cd257610cd1610c92565b5b50565b6000819050610ce382610cc1565b919050565b6000610cf382610cd5565b9050919050565b610d0381610ce8565b82525050565b600061010082019050610d1f600083018b610bb2565b610d2c602083018a610bf3565b610d396040830189610bf3565b610d466060830188610bb2565b610d536080830187610bb2565b81810360a0830152610d658186610c59565b905081810360c0830152610d798185610c59565b9050610d8860e0830184610cfa565b9998505050505050505050565b6000602082019050610daa6000830184610bb2565b92915050565b600080fd5b600080fd5b7f4e487b7100000000000000000000000000000000000000000000000000000000600052604160045260246000fd5b610df282610c48565b810181811067ffffffffffffffff82111715610e1157610e10610dba565b5b80604052505050565b6000610e24610b3b565b9050610e308282610de9565b919050565b600067ffffffffffffffff821115610e5057610e4f610dba565b5b610e5982610c48565b9050602081019050919050565b82818337600083830152505050565b6000610e88610e8384610e35565b610e1a565b905082815260208101848484011115610ea457610ea3610db5565b5b610eaf848285610e66565b509392505050565b600082601f830112610ecc57610ecb610db0565b5b8135610edc848260208601610e75565b91505092915050565b600060208284031215610efb57610efa610b45565b5b600082013567ffffffffffffffff811115610f1957610f18610b4a565b5b610f2584828501610eb7565b91505092915050565b6000602082019050610f436000830184610bf3565b92915050565b60008060408385031215610f6057610f5f610b45565b5b6000610f6e85828601610b70565b925050602083013567ffffffffffffffff811115610f8f57610f8e610b4a565b5b610f9b85828601610eb7565b9150509250929050565b7f4e487b7100000000000000000000000000000000000000000000000000000000600052602260045260246000fd5b60006002820490506001821680610fec57607f821691505b602082108103610fff57610ffe610fa5565b5b50919050565b7f5072696365206d7573742062652067726561746572207468616e207a65726f00600082015250565b600061103b601f83610c0d565b915061104682611005565b602082019050919050565b6000602082019050818103600083015261106a8161102e565b9050919050565b7f4e487b7100000000000000000000000000000000000000000000000000000000600052601160045260246000fd5b60006110ab82610b4f565b91506110b683610b4f565b92508282026110c481610b4f565b915082820484148315176110db576110da611071565b5b5092915050565b7f4e487b7100000000000000000000000000000000000000000000000000000000600052601260045260246000fd5b600061111c82610b4f565b915061112783610b4f565b925082611137576111366110e2565b5b828204905092915050565b60008190508160005260206000209050919050565b60006020601f8301049050919050565b600082821b905092915050565b6000600883026111a47fffffffffffffffffffffffffffffffffffffffffffffffffffffffffffffffff82611167565b6111ae8683611167565b95508019841693508086168417925050509392505050565b6000819050919050565b60006111eb6111e66111e184610b4f565b6111c6565b610b4f565b9050919050565b6000819050919050565b611205836111d0565b611219611211826111f2565b848454611174565b825550505050565b600090565b61122e611221565b6112398184846111fc565b505050565b5b8181101561125d57611252600082611226565b60018101905061123f565b5050565b601f8211156112a25761127381611142565b61127c84611157565b8101602085101561128b578190505b61129f61129785611157565b83018261123e565b50505b505050565b600082821c905092915050565b60006112c5600019846008026112a7565b1980831691505092915050565b60006112de83836112b4565b9150826002028217905092915050565b6112f782610c02565b67ffffffffffffffff8111156113105761130f610dba565b5b61131a8254610fd4565b611325828285611261565b600060209050601f8311600181146113585760008415611346578287015190505b61135085826112d2565b8655506113b8565b601f19841661136686611142565b60005b8281101561138e57848901518255600182019150602085019450602081019050611369565b868310156113ab57848901516113a7601f8916826112b4565b8355505b6001600288020188555050505b505050505050565b60006113cb82610bc1565b9050919050565b6113db816113c0565b82525050565b60006060820190506113f660008301866113d2565b6114036020830185610bb2565b81810360408301526114158184610c59565b9050949350505050565b600061142a82610b4f565b91507fffffffffffffffffffffffffffffffffffffffffffffffffffffffffffffffff820361145c5761145b611071565b5b600182019050919050565b7f4a6f62206973206e6f742070656e64696e670000000000000000000000000000600082015250565b600061149d601283610c0d565b91506114a882611467565b602082019050919050565b600060208201905081810360008301526114cc81611490565b9050919050565b60006020820190506114e860008301846113d2565b92915050565b7f4a6f62206973206e6f7420726561647920666f72207061796d656e7400000000600082015250565b6000611524601c83610c0d565b915061152f826114ee565b602082019050919050565b6000602082019050818103600083015261155381611517565b9050919050565b7f4f6e6c792074686520636c69656e742063616e20636f6e6669726d20616e642060008201527f7061790000000000000000000000000000000000000000000000000000000000602082015250565b60006115b6602383610c0d565b91506115c18261155a565b604082019050919050565b600060208201905081810360008301526115e5816115a9565b9050919050565b60006115f782610b4f565b915061160283610b4f565b925082820390508181111561161a57611619611071565b5b92915050565b600081905092915050565b50565b600061163b600083611620565b91506116468261162b565b600082019050919050565b600061165c8261162e565b9150819050919050565b7f466565207472616e73666572206661696c656400000000000000000000000000600082015250565b600061169c601383610c0d565b91506116a782611666565b602082019050919050565b600060208201905081810360008301526116cb8161168f565b9050919050565b7f50726f7669646572207061796d656e74206661696c6564000000000000000000600082015250565b6000611708601783610c0d565b9150611713826116d2565b602082019050919050565b60006020820190508181036000830152611737816116fb565b9050919050565b7f4a6f62206973206e6f742061737369676e656420746f20796f75000000000000600082015250565b6000611774601a83610c0d565b915061177f8261173e565b602082019050919050565b600060208201905081810360008301526117a381611767565b9050919050565b7f4f6e6c79207468652061737369676e65642070726f76696465722063616e206360008201527f6f6d706c65746520746865206a6f620000000000000000000000000000000000602082015250565b6000611806602f83610c0d565b9150611811826117aa565b604082019050919050565b60006020820190508181036000830152611835816117f9565b9050919050565b600060208201905081810360008301526118568184610c59565b90509291505056fea264697066735822122063f68e197bd5605e02108a780d1ab652316b2646deede2201ce00bd34189a16764736f6c634300081c0033",
  "linkReferences": {},
  "deployedLinkReferences": {}
}